:10060C00616C61726D006F6E21006F666600636CC9
:04061C006F636B009D
:10042800E4F52375900FE590640F6069E590640F1B
:10043800606375900FAF90EF24F5601324FE60178A
:1004480014601C2407701E75300075310180167504
:100458003000753102800E753000753103800675E5
:1004680030007531047590F0AF90EF24506013247C
:10047800E0601324F060132470701A8530308531E1
:1004880031227404800674088002740C2531F53119
:05049800E43530F530F1
:01049D00223C
:10001E00E4F508F51BF51CF51D751E0A751F0A750E
:10002E00200A75210AF52212062012063412064401
:10003E00E4FF12049E8F08120428E53060030200CC
:10004E00EDE53114B4080040030200ED9000687530
:10005E00F003A4C58325F0C5837302008002008ED1
:10006E000200990200A70200B20200C00200CB02F9
:10007E0000D9052AE52AC39418401CE4F52A8017F6
:10008E00E52A7003752A18152A8025052BE52BC342
:10009E00943C4003E4F52B8017E52B7003752B3C45
:1000AE00152B8025052EE52EC394184003E4F52E5E
:1000BE008017E52E7003752E18152E8017052FE567
:1000CE002FC3943C4003E4F52F8009E52F70037590
:1000DE002F3C152FE4F530F5317F64FE12059EE5B9
:1000EE0008B40112E51B70047F0180027F008F1B94
:1000FE007D0A7C008018E508B4021D120003E4F5A9
:10010E001BF52BF529F528F52AF51D7D0AFC7FE850
:10011E007E0312057D0201D4E5086403600302012B
:10012E00D4C3E52A952EFFE49400FE12000EEF24B0
:10013E00F6251FF51FC3E52B952FFFE49400FE1245
:10014E00000EEF24F6251EF51EC3E529952DFFE4BE
:10015E009400FE12000EEF24F62520F520600915FE
:10016E001EC3743C9520F520E51E600B151FC3744D
:10017E003C951E252FF51EE4F52FF52DF52CF52EAD
:10018E007D0AFC7FE87E0312057D7BFF7A06790CE3
:10019E007D017F05120309E51C70047F0180027F3B
:1001AE00008F1CE51D70047F0180027F008F1DE50E
:1001BE001D7BFF60067A06791280047A0679167D19
:1001CE0001E4FF120309E508B4040CE52270047F74
:1001DE000180027F008F22E5227BFF605D7A067927
:1001EE000C7D017F05120309E52E75F00A8424307B
:1001FE00F512E52E75F00A84E5F02430F51375142A
:10020E003AE52F75F00A842430F515E52F75F00ABE
:10021E0084E5F02430F51675173AE52D75F00A844D
:10022E002430F518E52D75F00A84E5F02430F51923
:10023E00E4F51AFB7A007912805B7A06791A7D0151
:10024E007F05120309E52A75F00A842430F509E5C5
:10025E002A75F00A84E5F02430F50A750B3AE52B81
:10026E0075F00A842430F50CE52B75F00A84E5F060
:10027E002430F50D750E3AE52975F00A842430F513
:10028E000FE52975F00A84E5F02430F510E4F51138
:10029E00FB7A007909FDFF120309E52E651F703FF9
:1002AE00E51E652F7039E520652D7033E51D602F35
:1002BE007D0A7C007FA07E8612057D7BFF7A067903
:1002CE00167D01E4FF120309120003E4F51DE51C7F
:1002DE0070047F0180027F008F1CE4F52FF52DE561
:1002EE001B60051206678003120003E51C600612F0
:0B02FE00066A02003E12065F02003E8E
:0305BC0001320108
:10049E00EF6003753201E5326401702E30B1093020
:1004AE00B00630B20320B3227FE87E03120654E476
:1004BE00F53220B1037F012220B0037F022220B249
:1004CE00037F032220B3127F042230B10C30B00917
:0B04DE0030B20630B3037532017F001E
:0104E90022F0
:10057D008E238F248C258D26E5241524AE23700221
:10058D0015234E600BB2A5AF26AE2512065480E89A
:01059D00223B
:0C05BF00012800012900012B00012A0086
:10063400438901758CDCE4F58AD2A9D2AFC28C223D
:03066700D28C2210
:08000300C28CE4F58CF58A22A1
:03000B000204EA02
:1004EA00C0E0C0D0758CDC758A000528E528B464A4
:1004FA00217528000529E529B43C17752900052B23
:10050A00E52BB43C0D752B00052AE52AB4180375B2
:07051A002A00D0D0D0E0322E
:1005D800C2A6C2A5C2A78F807F017E0012059ED247
:0B05E800A77F017E0012059EC2A72223
:0A055800AB24AA25A9261205F3FF23
:10056200D2A6C2A5C2A78F807F017E0012059ED2AD
:0B057200A77F017E0012059EC2A72299
:100620007F381205D87F0C1205D87F061205D87FB7
:04063000010205D8E6
:080309008F238B248A2589262D
:10031100E4F527EDD39401400302039BE523940FF9
:100321005078EDC394015039AB24AA25A9261205B2
:10033100F36067C374109523FFE527C39FE527503A
:1003410006248025238004252324B0FF1205D8121A
:10035100055874012526F526E43525F52505278060
:10036100C7AB24AA25A9261205F3602EC3741095E4
:1003710023FFE527C39FE527500624C025238004DA
:1003810025232470FF1205D812055874012526F57E
:0A03910026E43525F525052780C771
:01039B00223F
:0C05CB00012C00012D00012F00012E006A
:10064400438910758DDCE4F58BD2ABD2AFC28E2218
:03066A00D28E220B
:08065F00C28EE4F58DF58B223B
:03001B00020521BA
:10052100C0E0C0D0758DDC758B00052CE52CB46462
:1005310021752C00052DE52DB43C17752D00052FD7
:10054100E52FB43C0D752F00052EE52EB41803756B
:070551002E00D0D0D0E032F3
:0B065400EF1FAC0670011E4C70F62278
:10059E00D3EF9400EE940040147D6E7C00ED1D7040
:0D05AE00011CED4C70F7EF1F70E61E80E39E
:0105BB00221D
:0300000002039C5C
:0C039C00787FE4F6D8FD7581320203E39F
:1005F300BB010689828A83E0225002E722BBFE0206
:09060300E32289828A83E4932238
:0C000E00EE30E707C3E49FFFE49EFE22F3
:1003A80002001EE493A3F8E493A34003F68001F24D
:1003B80008DFF48029E493A3F85407240CC8C33356
:1003C800C4540F4420C8834004F456800146F6DF25
:1003D800E4800B01020408102040809005BCE47EF4
:1003E800019360BCA3FF543F30E509541FFEE4931A
:1003F800A360010ECF54C025E060A840B8E493A3E1
:10040800FAE493A3F8E493A3C8C582C8CAC583CA0B
:10041800F0A3C8C582C8CAC583CADFE9DEE780BEC3
:0105D7000023
:00000001FF
